:020000040800F2
:1000000070060020890100089D0300089503000880
:100010009903000843020008B30B00080000000029
:10002000000000000000000000000000490A000875
:10003000990200080000000069070008350B00085D
:10004000A3010008A3010008A3010008A301000800
:10005000A3010008A3010008A3010008A3010008F0
:10006000A3010008A3010008A3010008A3010008E0
:10007000A3010008A3010008A3010008A3010008D0
:10008000A3010008A3010008A3010008A3010008C0
:10009000A3010008A3010008A3010008A3010008B0
:1000A000A3010008A3010008A3010008A3010008A0
:1000B000A3010008A3010008A3010008A301000890
:1000C000A3010008A3010008A3010008A301000880
:1000D000A3010008A3010008A3010008A301000870
:1000E000A3010008A3010008A301000800F002F822
:1000F00000F03AF80AA090E8000C82448344AAF188
:100100000107DA4501D100F02FF8AFF2090EBAE885
:100110000F0013F0010F18BFFB1A43F0010318473B
:10012000D00A0000F00A0000103A24BF78C878C155
:10013000FAD8520724BF30C830C144BF04680C60ED
:10014000704700000023002400250026103A28BF35
:1001500078C1FBD8520728BF30C148BF0B60704739
:100160001FB51FBD10B510BD00F031F81146FFF7E7
:10017000F7FF00F021FD00F04FF803B4FFF7F2FFA6
:1001800003BC00F057F800000948804709480047C1
:10019000FEE7FEE7FEE7FEE7FEE7FEE7FEE7FEE737
:1001A000FEE7FEE704480549054A064B7047000094
:1001B000390B0008ED0000087000002070060020D8
:1001C000700200207002002070477047704775462B
:1001D00000F02CF8AE4605006946534620F00700B3
:1001E000854618B020B5FFF7DDFFBDE820404FF091
:1001F00000064FF000074FF000084FF0000B21F011
:100200000701AC46ACE8C009ACE8C009ACE8C009DD
:10021000ACE8C0098D46704710B50446AFF30080C6
:100220002046BDE81040FFF7A8BF00000048704717
:100230001000002001491820ABBEFEE72600020096
:10024000704700BFFEE700000348006820F002008E
:1002500001490860704700000C0C01400348006829
:1002600040F0020001490860704700000C0C01409A
:100270000348006840F00100014908607047000031
:100280000C0C01400348006820F00100014908609F
:10029000704700000C0C01407047000000B502469A
:1002A00000F07AFC1248C06920F001001049C861D2
:1002B0000846C06940F00100C861472089040885EC
:1002C00008468285008840F00100088000BF4FF09A
:1002D0008040008A00F001000028F8D04FF08040F4
:1002E000008820F001004FF08041088000BD000030
:1002F0000010024000B5024600F04EFC4FF6FF70C1
:1003000000EA42021248C06920F001001049C861A9
:100310000846C06940F00100C86148F69F40890462
:10032000088508468285008840F00100088000BFEB
:100330004FF08040008A00F001000028F8D04FF014
:100340008040008820F001004FF08041088000BD0F
:10035000001002400D48806940F010000B49886190
:100360000B48006940F4005009490861084640689C
:1003700020F4400048600846406840F4401048605F
:100380000846C06840F40050C86070470010024042
:100390000010014000BFFEE700BFFEE7704700000D
:1003A0002DE9F04105460E461746002427480088EF
:1003B00040F0400025490880FFF764FF00BF234854
:1003C0000830008800F002000228F8D11F480C30E5
:1003D000058000BF1D480830008800F00200022898
:1003E000F8D100BF19480830008800F080000028CC
:1003F000F8D11648008840F480601449088000BF96
:1004000012480830008800F001000028F8D00F489A
:100410000C30008800240DE000BF0C480830008834
:1004200000F001000028F8D008480C300088305552
:10043000601CC4B2BC42EFDBFFF71AFF0348008820
:1004400020F4806001490880BDE8F0810038004058
:1004500070B5044600252C48008840F040002A4929
:100460000880FFF70FFF00BF27480830008800F022
:1004700002000228F8D124480C300480072C0CD14B
:1004800000BF21480830008800F001000028F8D0A3
:100490001D480C300088C5B234E000BF1A4808304F
:1004A000008800F002000228F8D100BF164808308A
:1004B000008800F080000028F8D11348008840F43C
:1004C00080601149088000BF0F480830008800F0A4
:1004D00001000028F8D00C480C30008800BF0A4802
:1004E0000830008800F001000028F8D006480C30E1
:1004F0000088C5B2FFF7BCFE0348008820F4806086
:1005000001490880284670BD0038004038B50446CF
:100510000D4613A000680090FFF7B4FE0121684665
:1005200000F048FA01210F4800F044FAFFF7A0FE5E
:1005300061200090FFF792FE9620FFF7AFFEFFF7D5
:1005400083FE2A4621466120FFF72AFF0120FFF79C
:10055000D1FEE22000900121684600F02BFA38BD60
:10056000A00000000C00002010B50024FFF76CFE76
:100570000020FFF76DFF044644F0010421460020EF
:1005800000F036F8002000F05BF8072000F058F883
:100590000221084600F02CF80121084600F028F856
:1005A00001211C2000F024F80421122000F020F882
:1005B00003220E490B2000F02FF80121032000F048
:1005C00017F80521042000F013F84C21052000F055
:1005D0000FF80221062000F00BF801211D2000F089
:1005E00007F801211C2000F003F810BD09000020CD
:1005F00038B504460D4644F02004FFF743FE00944E
:100600000121684600F0D6F900950121684600F006
:10061000D1F9FFF72DFE38BDF8B504460D46164654
:1006200044F02004FFF72EFE00940121684600F0FC
:10063000C1F93146284600F0BDF9FFF719FEF8BDB3
:1006400010B586B0044644A003C8CDE9040144A116
:1006500003C9CDE9020140A103C9CDE90001FFF7BB
:10066000F3FD41F28830FFF719FE072C04D1002179
:100670000720FFF7BDFF6DE0172C04D111211720D3
:10068000FFF7B6FF66E008210020FFF7B1FF3F212A
:100690000120FFF7ADFF03210220FFF7A9FF03218F
:1006A0000846FFF7A5FF03210420FFF7A1FF022161
:1006B0000520FFF79DFF0E210620FFF799FF00217F
:1006C0000720FFF795FF00210820FFF791FF052283
:1006D00004A90A20FFF7A0FF052202A90B20FFF7BB
:1006E0009BFFC3210C20FFF783FFC4210D20FFF7E0
:1006F0007FFFC5210E20FFF77BFFC6210F20FFF7EC
:1007000077FF052269461020FFF786FF00211120A0
:10071000FFF76EFF00211220FFF76AFF0021132070
:10072000FFF766FF00211420FFF762FF002115206C
:10073000FFF75EFF00211620FFF75AFF1121172057
:10074000FFF756FF00211C20FFF752FF00211D205C
:10075000FFF74EFF06B010BDE7E7E7E7E700000050
:10076000C2C2C2C2C2000000704700002E4800682A
:1007700040F480302C49086000BF2B48006800F42A
:1007800000300028F9D01320284908602648406826
:10079000254948600846406840F480604860084643
:1007A000406848600846406840F0806048600846FD
:1007B000406820F4701048600846406820F480309B
:1007C00048600846406820F40030486008464068A9
:1007D00040F4803048600846406820F400304860AB
:1007E0000846406840F4E01048600846006840F061
:1007F0008070086000BF0C48006800F0007000289E
:10080000F9D00948406820F00300074948600846CD
:10081000406840F00200486000BF0348406800F0B4
:100820000C000828F9D17047001002400020024057
:10083000002004490880091D088002490C31088005
:10084000704700000038004000B55748806940F00C
:100850000800554988615548006820F00C0053494C
:1008600008600846006840F0030008604F480C30FC
:10087000006840F001004D490C3108604B480068A9
:1008800020F0C000494908600846006840F0300088
:10089000086046480C30006820F0020043490C31E3
:1008A00008604248001D006840F400003F49091DEF
:1008B00008600846006820F4800008600846006868
:1008C00040F4401008600846006820F000600860AE
:1008D0000846006840F0806008600846006820F024
:1008E000407008600846006840F000400860084614
:1008F000006820F0804008600846006840F04050E2
:100900000860FFF795FF2848C06940F480402649F9
:10091000C86100BF2448C06900F48040B0F5804F32
:10092000F8D12348008840F0040021490880084697
:10093000008820F4004008800846008820F4806089
:1009400008800846008820F4006008800846008877
:1009500040F0180008800846008820F02000088039
:100960000846008820F0020008800846008820F031
:10097000010008800846008840F40070088008469E
:10098000008840F4807008800846008820F08000CD
:1009900008800846008820F4005008800846008837
:1009A00040F04000088000BD00100240000C0140F3
:1009B0000038004010B502460020224B1B8843F04F
:1009C0004003204C238000BF2DE04B1E83420CDDF2
:1009D00000BF1C4B08331B8803F00203022BF8D125
:1009E000135C184C0C3423801BE000BF154B0833FC
:1009F0001B8803F00203022BF8D1135C114C0C345A
:100A0000238000BF0F4B08331B8803F00203022B27
:100A1000F8D100BF0B4B08331B8803F08003002B79
:100A2000F8D1431C58B28842CFDB064B0C331B88ED
:100A3000044B08331B88034B1B8823F04003014CF5
:100A4000238010BD00380040704710B500F002F858
:100A500010BD00000CB500200190009033480068E4
:100A600040F480303149086000BF3048006800F42D
:100A7000003000900198401C0190009818B901982E
:100A8000B0F5A06FF1D12948006800F4003010B132
:100A90000120009001E0002000900098012843D13F
:100AA0002348006840F010002149086008460068AB
:100AB00020F0030008600846006840F0020008606B
:100AC0001A48406819494860084640684860084626
:100AD000406840F4806048600846406820F47C101C
:100AE00048600846406840F4E810486008460068DE
:100AF00040F08070086000BF0C48006800F0007093
:100B00000028F9D00948406820F0030007494860F0
:100B10000846406840F00200486000BF0348406853
:100B200000F00C000828F9D10CBD000000100240B4
:100B3000002002407047000010B51348006840F0E4
:100B400001001149086008464068104908400E49F4
:100B50004860084600680E4908400B49086008468E
:100B6000006820F4802008600846406820F4FE00F9
:100B700048604FF41F008860FFF767FF4FF0006088
:100B80000449086010BD0000001002400000FFF89A
:100B9000FFFFF6FE08ED00E000204FF080410880E6
:100BA0008880088288818882088540F6FF70888561
:100BB000704700BFFEE70000FFF7CCFBFFF7D6FD54
:100BC000FFF742FBFFF754FBFFF73EFEFFF7CCFCBD
:100BD000FFF744FB0120FFF761FB06E00421034817
:100BE000FFF794FC6420FFF785FBF7E70500002082
:100BF000100C000800000020100000002801000870
:100C0000200C0008100000206006000044010008CD
:100C100000000000000000000000DDCC7B000000B0
:04000005080000ED02
:00000001FF
